{
  "contractName": "CrowedSale",
  "abi": [
    {
      "inputs": [
        {
          "name": "rate",
          "type": "uint256"
        },
        {
          "name": "wallet",
          "type": "address"
        },
        {
          "name": "token",
          "type": "address"
        }
      ],
      "payable": true,
      "stateMutability": "payable",
      "type": "constructor"
    },
    {
      "payable": true,
      "stateMutability": "payable",
      "type": "fallback"
    },
    {
      "constant": true,
      "inputs": [],
      "name": "token",
      "outputs": [
        {
          "name": "",
          "type": "address"
        }
      ],
      "payable": false,
      "stateMutability": "view",
      "type": "function"
    },
    {
      "constant": true,
      "inputs": [],
      "name": "wallet",
      "outputs": [
        {
          "name": "",
          "type": "address"
        }
      ],
      "payable": false,
      "stateMutability": "view",
      "type": "function"
    },
    {
      "constant": true,
      "inputs": [],
      "name": "rate",
      "outputs": [
        {
          "name": "",
          "type": "uint256"
        }
      ],
      "payable": false,
      "stateMutability": "view",
      "type": "function"
    },
    {
      "constant": false,
      "inputs": [
        {
          "name": "benifiary",
          "type": "address"
        }
      ],
      "name": "buyTokens",
      "outputs": [],
      "payable": true,
      "stateMutability": "payable",
      "type": "function"
    }
  ],
  "bytecode": "0x60806040526040516060806108a48339810180604052606081101561002357600080fd5b810190808051906020019092919080519060200190929190805190602001909291905050506000831115156100c0576040517f08c379a00000000000000000000000000000000000000000000000000000000081526004018080602001828103825260148152602001807f43726f776473616c653a2072617465206973203000000000000000000000000081525060200191505060405180910390fd5b600073ffffffffffffffffffffffffffffffffffffffff168273ffffffffffffffffffffffffffffffffffffffff161415151561018b576040517f08c379a00000000000000000000000000000000000000000000000000000000081526004018080602001828103825260258152602001807f43726f776473616c653a2077616c6c657420697320746865207a65726f20616481526020017f647265737300000000000000000000000000000000000000000000000000000081525060400191505060405180910390fd5b600073ffffffffffffffffffffffffffffffffffffffff168173ffffffffffffffffffffffffffffffffffffffff1614151515610256576040517f08c379a00000000000000000000000000000000000000000000000000000000081526004018080602001828103825260248152602001807f43726f776473616c653a20746f6b656e20697320746865207a65726f2061646481526020017f726573730000000000000000000000000000000000000000000000000000000081525060400191505060405180910390fd5b8260028190555081600160006101000a81548173ffffffffffffffffffffffffffffffffffffffff021916908373ffffffffffffffffffffffffffffffffffffffff160217905550806000806101000a81548173ffffffffffffffffffffffffffffffffffffffff021916908373ffffffffffffffffffffffffffffffffffffffff1602179055505050506105b4806102f06000396000f3fe608060405260043610610062576000357c0100000000000000000000000000000000000000000000000000000000900463ffffffff1680632c4e722e1461006d578063521eb27314610098578063ec8ac4d8146100ef578063fc0c546a14610133575b61006b3361018a565b005b34801561007957600080fd5b506100826103fb565b6040518082815260200191505060405180910390f35b3480156100a457600080fd5b506100ad610405565b604051808273ffffffffffffffffffffffffffffffffffffffff1673ffffffffffffffffffffffffffffffffffffffff16815260200191505060405180910390f35b6101316004803603602081101561010557600080fd5b81019080803573ffffffffffffffffffffffffffffffffffffffff16906020019092919050505061018a565b005b34801561013f57600080fd5b5061014861042f565b604051808273ffffffffffffffffffffffffffffffffffffffff1673ffffffffffffffffffffffffffffffffffffffff16815260200191505060405180910390f35b600073ffffffffffffffffffffffffffffffffffffffff163373ffffffffffffffffffffffffffffffffffffffff161415151561022f576040517f08c379a00000000000000000000000000000000000000000000000000000000081526004018080602001828103825260198152602001807f62656e6966696172792069732061646472657373207a65726f0000000000000081525060200191505060405180910390fd5b600034141515156102a8576040517f08c379a000000000000000000000000000000000000000000000000000000000815260040180806020018281038252600e8152602001807f207a65726f207765692073656e6400000000000000000000000000000000000081525060200191505060405180910390fd5b600034905060006102b882610458565b90506000809054906101000a900473ffffffffffffffffffffffffffffffffffffffff1673ffffffffffffffffffffffffffffffffffffffff166323b872dd3385846040518463ffffffff167c0100000000000000000000000000000000000000000000000000000000028152600401808473ffffffffffffffffffffffffffffffffffffffff1673ffffffffffffffffffffffffffffffffffffffff1681526020018373ffffffffffffffffffffffffffffffffffffffff1673ffffffffffffffffffffffffffffffffffffffff1681526020018281526020019350505050602060405180830381600087803b1580156103b257600080fd5b505af11580156103c6573d6000803e3d6000fd5b505050506040513d60208110156103dc57600080fd5b8101908080519060200190929190505050506103f6610476565b505050565b6000600254905090565b6000600160009054906101000a900473ffffffffffffffffffffffffffffffffffffffff16905090565b60008060009054906101000a900473ffffffffffffffffffffffffffffffffffffffff16905090565b600061046f600254836104e190919063ffffffff16565b9050919050565b600160009054906101000a900473ffffffffffffffffffffffffffffffffffffffff1673ffffffffffffffffffffffffffffffffffffffff166108fc349081150290604051600060405180830381858888f193505050501580156104de573d6000803e3d6000fd5b50565b6000808314156104f45760009050610582565b6000828402905082848281151561050757fe5b0414151561057d576040517f08c379a00000000000000000000000000000000000000000000000000000000081526004018080602001828103825260178152602001807f4d756c7469706c69636174696f6e206f766572666c6f7700000000000000000081525060200191505060405180910390fd5b809150505b9291505056fea165627a7a7230582065d7da36a5ebcd85db02b61d0641422bce8183b5215cb04378e941540c20286c0029",
  "source": "pragma solidity ^0.5.0;\n\nimport \"./ERC20.sol\";\nimport \"./safeMath.sol\";\n\n\ncontract CrowedSale {\n    using safeMath for uint; \n    \n    ERC20 private _token;\n    \n    address payable private _wallet;\n    \n    uint private _rate;\n    \n    \n    \n    constructor(uint rate, address payable wallet, ERC20 token) public payable {\n        \n        require(rate > 0, \"Crowdsale: rate is 0\");\n        require(wallet != address(0), \"Crowdsale: wallet is the zero address\");\n        require(address(token) != address(0), \"Crowdsale: token is the zero address\");\n\n        _rate = rate;\n        _wallet = wallet;\n        _token = token;\n        \n    }\n    \n    function () external payable {\n        buyTokens(msg.sender);\n    }\n\n    \n    function token() public view returns (ERC20) {\n        return _token;\n    }\n\n   \n    function wallet() public view returns (address payable) {\n        return _wallet;\n    }\n\n    \n    function rate() public view returns (uint256) {\n        return _rate;\n    }\n    \n    \n    function buyTokens(address benifiary) public payable preValidate {\n        uint256 weiAmount = msg.value;\n        uint256 tokens = _getTokenAmount(weiAmount);\n        _token.transferFrom(msg.sender, benifiary, tokens);\n        _forwardFunds();\n        \n    }\n    \n    modifier preValidate() {\n        require(msg.sender != address(0), \"benifiary is address zero\");\n        require(msg.value != 0, \" zero wei send\");\n        _;\n    }\n    \n    function _getTokenAmount(uint256 weiAmount) internal view returns (uint256) {\n        return weiAmount.mul(_rate);\n    }\n    \n    \n    function _forwardFunds() internal {\n        _wallet.transfer(msg.value);\n    }\n    \n}\n",
  "sourcePath": "/home/sam/Documents/GitHub/My-etherum-world/contracts/CrowedSale.sol",
  "compiler": {
    "name": "solc",
    "version": "0.5.0+commit.1d4f565a.Emscripten.clang"
  },
  "schemaVersion": "3.0.9",
  "updatedAt": "2019-05-13T14:46:35.213Z",
  "devdoc": {
    "methods": {}
  },
  "userdoc": {
    "methods": {}
  }
}