{
  "contractName": "ERCToken",
  "abi": [
    {
      "constant": true,
      "inputs": [],
      "name": "name",
      "outputs": [
        {
          "name": "",
          "type": "string"
        }
      ],
      "payable": false,
      "stateMutability": "view",
      "type": "function"
    },
    {
      "constant": true,
      "inputs": [],
      "name": "decimals",
      "outputs": [
        {
          "name": "",
          "type": "uint8"
        }
      ],
      "payable": false,
      "stateMutability": "view",
      "type": "function"
    },
    {
      "constant": true,
      "inputs": [],
      "name": "_totalSupply",
      "outputs": [
        {
          "name": "",
          "type": "uint256"
        }
      ],
      "payable": false,
      "stateMutability": "view",
      "type": "function"
    },
    {
      "constant": true,
      "inputs": [],
      "name": "owner",
      "outputs": [
        {
          "name": "",
          "type": "address"
        }
      ],
      "payable": false,
      "stateMutability": "view",
      "type": "function"
    },
    {
      "constant": true,
      "inputs": [],
      "name": "symbol",
      "outputs": [
        {
          "name": "",
          "type": "string"
        }
      ],
      "payable": false,
      "stateMutability": "view",
      "type": "function"
    },
    {
      "constant": true,
      "inputs": [],
      "name": "currentTime",
      "outputs": [
        {
          "name": "",
          "type": "uint256"
        }
      ],
      "payable": true,
      "stateMutability": "payable",
      "type": "constructor"
    },
    {
      "inputs": [
        {
          "name": "tokenOwner",
          "type": "address"
        }
      ],
      "payable": false,
      "stateMutability": "view",
      "type": "function",
      "constant": true,
      "name": "balanceOf",
      "outputs": [
        {
          "name": "balance",
          "type": "uint256"
        }
      ]
    },
    {
      "constant": false,
      "inputs": [
        {
          "name": "tokenOwner",
          "type": "address"
        }
      ],
      "name": "allowance",
      "outputs": [
        {
          "name": "allow",
          "type": "uint256"
        }
      ],
      "payable": false,
      "stateMutability": "nonpayable",
      "type": "function"
    },
    {
      "constant": true,
      "inputs": [
        {
          "name": "to",
          "type": "address"
        },
        {
          "name": "tokens",
          "type": "uint256"
        }
      ],
      "name": "calculateAllowance",
      "outputs": [
        {
          "name": "balance",
          "type": "uint256"
        }
      ],
      "payable": false,
      "stateMutability": "view",
      "type": "function"
    },
    {
      "constant": false,
      "inputs": [
        {
          "name": "to",
          "type": "address"
        },
        {
          "name": "tokens",
          "type": "uint256"
        },
        {
          "name": "tokens",
          "type": "uint256"
        }
      ],
      "name": "transfer",
      "outputs": [
        {
          "name": "success",
          "type": "bool"
        }
      ],
      "payable": true,
      "stateMutability": "payable",
      "type": "function"
    },
    {
      "constant": false,
      "inputs": [
        {
          "name": "from",
          "type": "address"
        },
        {
          "name": "to",
          "type": "address"
        },
        {
          "name": "tokens",
          "type": "uint256"
        }
      ],
      "name": "transferFrom",
      "outputs": [
        {
          "name": "success",
          "type": "bool"
        }
      ],
      "payable": true,
      "stateMutability": "payable",
      "type": "function"
    }
  ],
  "bytecode": "0x60806040526040805190810160405280600281526020017f534a0000000000000000000000000000000000000000000000000000000000008152506000908051906020019061004f92919061011c565b506040805190810160405280600b81526020017f44554d4d5920546f6b656e0000000000000000000000000000000000000000008152506001908051906020019061009b92919061011c565b50600a600260006101000a81548160ff021916908360ff160217905550601e60038190555033600460006101000a81548173ffffffffffffffffffffffffffffffffffffffff021916908373ffffffffffffffffffffffffffffffffffffffff1602179055504260088190555042600781905550601e6009819055506101c1565b828054600181600116156101000203166002900490600052602060002090601f016020900481019282601f1061015d57805160ff191683800117855561018b565b8280016001018555821561018b579182015b8281111561018a57825182559160200191906001019061016f565b5b509050610198919061019c565b5090565b6101be91905b808211156101ba5760008160009055506001016101a2565b5090565b90565b610da5806101d06000396000f3fe6080604052600436106100a4576000357c0100000000000000000000000000000000000000000000000000000000900463ffffffff16806306fdde03146100a957806323b872dd14610139578063313ce567146101bf5780633e5beab9146101f05780633eaaf86b1461025557806370a08231146102805780638da5cb5b146102e557806395d89b411461033c578063a9059cbb146103cc578063b75ad9bc14610432575b600080fd5b3480156100b557600080fd5b506100be61045d565b6040518080602001828103825283818151815260200191508051906020019080838360005b838110156100fe5780820151818401526020810190506100e3565b50505050905090810190601f16801561012b5780820380516001836020036101000a031916815260200191505b509250505060405180910390f35b6101a56004803603606081101561014f57600080fd5b81019080803573ffffffffffffffffffffffffffffffffffffffff169060200190929190803573ffffffffffffffffffffffffffffffffffffffff169060200190929190803590602001909291905050506104fb565b604051808215151515815260200191505060405180910390f35b3480156101cb57600080fd5b506101d461082e565b604051808260ff1660ff16815260200191505060405180910390f35b3480156101fc57600080fd5b5061023f6004803603602081101561021357600080fd5b81019080803573ffffffffffffffffffffffffffffffffffffffff169060200190929190505050610841565b6040518082815260200191505060405180910390f35b34801561026157600080fd5b5061026a610894565b6040518082815260200191505060405180910390f35b34801561028c57600080fd5b506102cf600480360360208110156102a357600080fd5b81019080803573ffffffffffffffffffffffffffffffffffffffff16906020019092919050505061089a565b6040518082815260200191505060405180910390f35b3480156102f157600080fd5b506102fa6108e3565b604051808273ffffffffffffffffffffffffffffffffffffffff1673ffffffffffffffffffffffffffffffffffffffff16815260200191505060405180910390f35b34801561034857600080fd5b50610351610909565b6040518080602001828103825283818151815260200191508051906020019080838360005b83811015610391578082015181840152602081019050610376565b50505050905090810190601f1680156103be5780820380516001836020036101000a031916815260200191505b509250505060405180910390f35b610418600480360360408110156103e257600080fd5b81019080803573ffffffffffffffffffffffffffffffffffffffff169060200190929190803590602001909291905050506109a7565b604051808215151515815260200191505060405180910390f35b34801561043e57600080fd5b50610447610cd9565b6040518082815260200191505060405180910390f35b60018054600181600116156101000203166002900480601f0160208091040260200160405190810160405280929190818152602001828054600181600116156101000203166002900480156104f35780601f106104c8576101008083540402835291602001916104f3565b820191906000526020600020905b8154815290600101906020018083116104d657829003601f168201915b505050505081565b600081600560003373ffffffffffffffffffffffffffffffffffffffff1673ffffffffffffffffffffffffffffffffffffffff1681526020019081526020016000205481111515156105b5576040517f08c379a000000000000000000000000000000000000000000000000000000000815260040180806020018281038252601b8152602001807f596f7520646f6e2774206861766520656e6f75676820746f6b656e000000000081525060200191505060405180910390fd5b6105be33610841565b600560003373ffffffffffffffffffffffffffffffffffffffff1673ffffffffffffffffffffffffffffffffffffffff1681526020019081526020016000205401600560003373ffffffffffffffffffffffffffffffffffffffff1673ffffffffffffffffffffffffffffffffffffffff16815260200190815260200160002081905550600354600560003373ffffffffffffffffffffffffffffffffffffffff1673ffffffffffffffffffffffffffffffffffffffff168152602001908152602001600020541015156106d357600354600560003373ffffffffffffffffffffffffffffffffffffffff1673ffffffffffffffffffffffffffffffffffffffff168152602001908152602001600020819055505b6000600660003373ffffffffffffffffffffffffffffffffffffffff1673ffffffffffffffffffffffffffffffffffffffff1681526020019081526020016000208190555082600560008773ffffffffffffffffffffffffffffffffffffffff1673ffffffffffffffffffffffffffffffffffffffff1681526020019081526020016000205403600560008773ffffffffffffffffffffffffffffffffffffffff1673ffffffffffffffffffffffffffffffffffffffff1681526020019081526020016000208190555082600560008673ffffffffffffffffffffffffffffffffffffffff1673ffffffffffffffffffffffffffffffffffffffff1681526020019081526020016000205401600560008673ffffffffffffffffffffffffffffffffffffffff1673ffffffffffffffffffffffffffffffffffffffff1681526020019081526020016000208190555060019150509392505050565b600260009054906101000a900460ff1681565b600061084b610cd9565b600660008473ffffffffffffffffffffffffffffffffffffffff1673ffffffffffffffffffffffffffffffffffffffff1681526020019081526020016000208190559050919050565b60035481565b6000600560008373ffffffffffffffffffffffffffffffffffffffff1673ffffffffffffffffffffffffffffffffffffffff168152602001908152602001600020549050919050565b600460009054906101000a900473ffffffffffffffffffffffffffffffffffffffff1681565b60008054600181600116156101000203166002900480601f01602080910402602001604051908101604052809291908181526020018280546001816001161561010002031660029004801561099f5780601f106109745761010080835404028352916020019161099f565b820191906000526020600020905b81548152906001019060200180831161098257829003601f168201915b505050505081565b600081600560003373ffffffffffffffffffffffffffffffffffffffff1673ffffffffffffffffffffffffffffffffffffffff168152602001908152602001600020548111151515610a61576040517f08c379a000000000000000000000000000000000000000000000000000000000815260040180806020018281038252601b8152602001807f596f7520646f6e2774206861766520656e6f75676820746f6b656e000000000081525060200191505060405180910390fd5b610a6a33610841565b600560003373ffffffffffffffffffffffffffffffffffffffff1673ffffffffffffffffffffffffffffffffffffffff1681526020019081526020016000205401600560003373ffffffffffffffffffffffffffffffffffffffff1673ffffffffffffffffffffffffffffffffffffffff16815260200190815260200160002081905550600354600560003373ffffffffffffffffffffffffffffffffffffffff1673ffffffffffffffffffffffffffffffffffffffff16815260200190815260200160002054101515610b7f57600354600560003373ffffffffffffffffffffffffffffffffffffffff1673ffffffffffffffffffffffffffffffffffffffff168152602001908152602001600020819055505b6000600660003373ffffffffffffffffffffffffffffffffffffffff1673ffffffffffffffffffffffffffffffffffffffff1681526020019081526020016000208190555082600560003373ffffffffffffffffffffffffffffffffffffffff1673ffffffffffffffffffffffffffffffffffffffff1681526020019081526020016000205403600560003373ffffffffffffffffffffffffffffffffffffffff1673ffffffffffffffffffffffffffffffffffffffff1681526020019081526020016000208190555082600560008673ffffffffffffffffffffffffffffffffffffffff1673ffffffffffffffffffffffffffffffffffffffff1681526020019081526020016000205401600560008673ffffffffffffffffffffffffffffffffffffffff1673ffffffffffffffffffffffffffffffffffffffff16815260200190815260200160002081905550600191505092915050565b6000806000905060006064600354600502811515610cf357fe5b04905060008060085442039050600954811115610d715760095481811515610d1757fe5b04915082820293506000841415610d345782945050505050610d76565b6001841415610d4c5760028302945050505050610d76565b60035484101515610d6557600354945050505050610d76565b83945050505050610d76565b505050505b9056fea165627a7a7230582009548c29a8e8edcb1b6360dd4c3964855aa800251218b48c336751d1eb2654350029",
  "source": "pragma solidity ^0.5.0;\n\ncontract ERCToken {\n    string public symbol;\n    string public  name;\n    uint8 public decimals;\n    uint public _totalSupply;\n    \n    address public owner;\n\n    mapping(address => uint) balances;\n    \n    mapping(address => uint) allowed;\n\n    uint  currentTime;\n    uint  startTime; \n    uint cliff;\n  \n    constructor() public payable {\n        symbol = \"SJ\";\n        name = \"DUMMY Token\";\n        decimals = 10;\n        _totalSupply = 30;\n        owner = msg.sender;\n        \n        startTime = block.timestamp;\n        currentTime = now;\n        cliff = 30; \n    }\n\n    function balanceOf(address tokenOwner) public view  returns (uint balance) {\n        return balances[tokenOwner];\n    }\n    \n    function allowance(address tokenOwner) public returns (uint allow){\n        return allowed[tokenOwner] = calculateAllowance();\n    }\n    \n    function calculateAllowance() public view returns(uint balance){\n        uint inc = 0;\n        uint percent = (5*_totalSupply)/100;\n        uint rem;\n        uint diff = (now - startTime); // difference of present time and time last function called\n        if(diff > cliff){ // if the difference is greater than cliff value\n            rem = (diff / cliff);\n            inc =  rem * percent;\n            if(inc == 0){\n                return percent;\n            }\n            else if(inc == 1){\n                return percent * 2;\n            }\n            else if(inc >= _totalSupply){\n                return  _totalSupply;\n            }\n            else {\n                return inc;\n            } \n        }\n    }\n    \n   \n    function transfer(address to, uint tokens) public payable vesting(tokens)   returns (bool success) {\n        \n        balances[msg.sender] = balances[msg.sender] - tokens;\n        balances[to] = balances[to] + tokens;\n        // allowed[msg.sender] = allowed[msg.sender] - tokens;\n        // currentTime = now;\n\n        return true;\n    }\n    \n    function transferFrom(address from, address to, uint tokens ) public payable vesting(tokens)  returns(bool success){\n      \n        balances[from] = balances[from] - tokens;\n        balances[to] = balances[to] + tokens;\n        \n\n        return true;\n    }\n    \n    \n    modifier vesting(uint tokens){\n        require(tokens <= balances[msg.sender],\"You don't have enough token\");  // check if o. of token to to send is avaliable in balance\n    balances[msg.sender] = balances[msg.sender] + allowance(msg.sender);\n    if(balances[msg.sender] >= _totalSupply){\n        balances[msg.sender] = _totalSupply;\n    }\n    allowed[msg.sender]= 0;\n        _;\n    }\n   \n   \n   \n    \n}\n",
  "sourcePath": "/home/sam/Documents/GitHub/My-etherum-world/contracts/vesting.sol",
  "compiler": {
    "name": "solc",
    "version": "0.5.0+commit.1d4f565a.Emscripten.clang"
  },
  "schemaVersion": "3.0.9",
  "updatedAt": "2019-05-10T06:35:43.331Z",
  "devdoc": {
    "methods": {}
  },
  "userdoc": {
    "methods": {}
  }
}