{
  "contractName": "Project",
  "abi": [
    {
      "constant": true,
      "inputs": [],
      "name": "min_bid",
      "outputs": [
        {
          "name": "",
          "type": "uint256"
        }
      ],
      "payable": false,
      "stateMutability": "view",
      "type": "function"
    },
    {
      "constant": true,
      "inputs": [],
      "name": "bestBid",
      "outputs": [
        {
          "name": "",
          "type": "uint256"
        }
      ],
      "payable": false,
      "stateMutability": "view",
      "type": "function"
    },
    {
      "constant": true,
      "inputs": [],
      "name": "bestBidder",
      "outputs": [
        {
          "name": "",
          "type": "address"
        }
      ],
      "payable": false,
      "stateMutability": "view",
      "type": "function"
    },
    {
      "constant": true,
      "inputs": [],
      "name": "title",
      "outputs": [
        {
          "name": "",
          "type": "string"
        }
      ],
      "payable": false,
      "stateMutability": "view",
      "type": "function"
    },
    {
      "constant": true,
      "inputs": [],
      "name": "employer",
      "outputs": [
        {
          "name": "",
          "type": "address"
        }
      ],
      "payable": false,
      "stateMutability": "view",
      "type": "function"
    },
    {
      "constant": true,
      "inputs": [
        {
          "name": "",
          "type": "address"
        }
      ],
      "name": "bidders",
      "outputs": [
        {
          "name": "",
          "type": "uint256"
        }
      ],
      "payable": false,
      "stateMutability": "view",
      "type": "function"
    },
    {
      "inputs": [
        {
          "name": "_title",
          "type": "string"
        },
        {
          "name": "_min_bid",
          "type": "uint256"
        }
      ],
      "payable": true,
      "stateMutability": "payable",
      "type": "constructor"
    },
    {
      "constant": false,
      "inputs": [
        {
          "name": "amount",
          "type": "uint256"
        }
      ],
      "name": "bid",
      "outputs": [],
      "payable": false,
      "stateMutability": "nonpayable",
      "type": "function"
    },
    {
      "constant": false,
      "inputs": [
        {
          "name": "bidder",
          "type": "address"
        }
      ],
      "name": "selectBidder",
      "outputs": [],
      "payable": false,
      "stateMutability": "nonpayable",
      "type": "function"
    },
    {
      "constant": false,
      "inputs": [],
      "name": "withDraw",
      "outputs": [],
      "payable": false,
      "stateMutability": "nonpayable",
      "type": "function"
    },
    {
      "constant": false,
      "inputs": [],
      "name": "endBid",
      "outputs": [],
      "payable": false,
      "stateMutability": "nonpayable",
      "type": "function"
    }
  ],
  "bytecode": "0x60806040526000600360006101000a81548173ffffffffffffffffffffffffffffffffffffffff021916908373ffffffffffffffffffffffffffffffffffffffff16021790555060006004556000600660006101000a81548173ffffffffffffffffffffffffffffffffffffffff021916908373ffffffffffffffffffffffffffffffffffffffff160217905550604051610f25380380610f25833981018060405260408110156100af57600080fd5b8101908080516401000000008111156100c757600080fd5b828101905060208101848111156100dd57600080fd5b81518560018202830111640100000000821117156100fa57600080fd5b50509291906020018051906020019092919050505033600260006101000a81548173ffffffffffffffffffffffffffffffffffffffff021916908373ffffffffffffffffffffffffffffffffffffffff1602179055508160009080519060200190610166929190610175565b5080600181905550505061021a565b828054600181600116156101000203166002900490600052602060002090601f016020900481019282601f106101b657805160ff19168380011785556101e4565b828001600101855582156101e4579182015b828111156101e35782518255916020019190600101906101c8565b5b5090506101f191906101f5565b5090565b61021791905b808211156102135760008160009055506001016101fb565b5090565b90565b610cfc806102296000396000f3fe6080604052600436106100a4576000357c0100000000000000000000000000000000000000000000000000000000900463ffffffff1680630e7ebce4146100a95780630fdb1c10146100d4578063188178ac146100eb57806320c1614b1461013c5780632c56897b14610167578063454a2ab3146101be5780634a79d50c146101f95780638bae720b14610289578063ae200e79146102a0578063fcc8f793146102f7575b600080fd5b3480156100b557600080fd5b506100be61035c565b6040518082815260200191505060405180910390f35b3480156100e057600080fd5b506100e9610362565b005b3480156100f757600080fd5b5061013a6004803603602081101561010e57600080fd5b81019080803573ffffffffffffffffffffffffffffffffffffffff169060200190929190505050610523565b005b34801561014857600080fd5b50610151610797565b6040518082815260200191505060405180910390f35b34801561017357600080fd5b5061017c61079d565b604051808273ffffffffffffffffffffffffffffffffffffffff1673ffffffffffffffffffffffffffffffffffffffff16815260200191505060405180910390f35b3480156101ca57600080fd5b506101f7600480360360208110156101e157600080fd5b81019080803590602001909291905050506107c3565b005b34801561020557600080fd5b5061020e610a67565b6040518080602001828103825283818151815260200191508051906020019080838360005b8381101561024e578082015181840152602081019050610233565b50505050905090810190601f16801561027b5780820380516001836020036101000a031916815260200191505b509250505060405180910390f35b34801561029557600080fd5b5061029e610b05565b005b3480156102ac57600080fd5b506102b5610c92565b604051808273ffffffffffffffffffffffffffffffffffffffff1673ffffffffffffffffffffffffffffffffffffffff16815260200191505060405180910390f35b34801561030357600080fd5b506103466004803603602081101561031a57600080fd5b81019080803573ffffffffffffffffffffffffffffffffffffffff169060200190929190505050610cb8565b6040518082815260200191505060405180910390f35b60015481565b600660149054906101000a900460ff1615156103e6576040517f08c379a000000000000000000000000000000000000000000000000000000000815260040180806020018281038252601b8152602001807f20536f7272792062696420686173206265656e20636c6f73656420000000000081525060200191505060405180910390fd5b600260009054906101000a900473ffffffffffffffffffffffffffffffffffffffff1673ffffffffffffffffffffffffffffffffffffffff163373ffffffffffffffffffffffffffffffffffffffff161415156104d1576040517f08c379a00000000000000000000000000000000000000000000000000000000081526004018080602001828103825260298152602001807f206f6e6c7920656d706c6f7965722063616e206578656375746520746869732081526020017f66756e6374696f6e20000000000000000000000000000000000000000000000081525060400191505060405180910390fd5b3373ffffffffffffffffffffffffffffffffffffffff166108fc6801158e460913d000009081150290604051600060405180830381858888f19350505050158015610520573d6000803e3d6000fd5b50565b600660149054906101000a900460ff161515156105a8576040517f08c379a000000000000000000000000000000000000000000000000000000000815260040180806020018281038252601b8152602001807f20536f7272792062696420686173206265656e20636c6f73656420000000000081525060200191505060405180910390fd5b6000600560008373ffffffffffffffffffffffffffffffffffffffff1673ffffffffffffffffffffffffffffffffffffffff1681526020019081526020016000205414151515610660576040517f08c379a00000000000000000000000000000000000000000000000000000000081526004018080602001828103825260108152602001807f6e6f206164647265737320666f756e640000000000000000000000000000000081525060200191505060405180910390fd5b600260009054906101000a900473ffffffffffffffffffffffffffffffffffffffff1673ffffffffffffffffffffffffffffffffffffffff163373ffffffffffffffffffffffffffffffffffffffff1614151561074b576040517f08c379a00000000000000000000000000000000000000000000000000000000081526004018080602001828103825260298152602001807f206f6e6c7920656d706c6f7965722063616e206578656375746520746869732081526020017f66756e6374696f6e20000000000000000000000000000000000000000000000081525060400191505060405180910390fd5b80600660006101000a81548173ffffffffffffffffffffffffffffffffffffffff021916908373ffffffffffffffffffffffffffffffffffffffff160217905550610794610b05565b50565b60045481565b600360009054906101000a900473ffffffffffffffffffffffffffffffffffffffff1681565b60015481111515610862576040517f08c379a000000000000000000000000000000000000000000000000000000000815260040180806020018281038252602f8152602001807f20616d6f756e74206d7573742062652067726561746572207468616e206d696e81526020017f696d756d206269642076616c756520000000000000000000000000000000000081525060400191505060405180910390fd5b600660149054906101000a900460ff161515156108e7576040517f08c379a000000000000000000000000000000000000000000000000000000000815260040180806020018281038252601b8152602001807f20536f7272792062696420686173206265656e20636c6f73656420000000000081525060200191505060405180910390fd5b6000600560003373ffffffffffffffffffffffffffffffffffffffff1673ffffffffffffffffffffffffffffffffffffffff168152602001908152602001600020541415156109c4576040517f08c379a00000000000000000000000000000000000000000000000000000000081526004018080602001828103825260318152602001807f20796f75206861766520616c72656164792062696464656420736f6d6520616d81526020017f6f756e7420696e2070726f6a656374202000000000000000000000000000000081525060400191505060405180910390fd5b8060045410156109d657806004819055505b33600360006101000a81548173ffffffffffffffffffffffffffffffffffffffff021916908373ffffffffffffffffffffffffffffffffffffffff16021790555080600560003373ffffffffffffffffffffffffffffffffffffffff1673ffffffffffffffffffffffffffffffffffffffff1681526020019081526020016000206000828254019250508190555050565b60008054600181600116156101000203166002900480601f016020809104026020016040519081016040528092919081815260200182805460018160011615610100020316600290048015610afd5780601f10610ad257610100808354040283529160200191610afd565b820191906000526020600020905b815481529060010190602001808311610ae057829003601f168201915b505050505081565b600660149054906101000a900460ff16151515610b8a576040517f08c379a000000000000000000000000000000000000000000000000000000000815260040180806020018281038252601b8152602001807f20536f7272792062696420686173206265656e20636c6f73656420000000000081525060200191505060405180910390fd5b600260009054906101000a900473ffffffffffffffffffffffffffffffffffffffff1673ffffffffffffffffffffffffffffffffffffffff163373ffffffffffffffffffffffffffffffffffffffff16141515610c75576040517f08c379a00000000000000000000000000000000000000000000000000000000081526004018080602001828103825260298152602001807f206f6e6c7920656d706c6f7965722063616e206578656375746520746869732081526020017f66756e6374696f6e20000000000000000000000000000000000000000000000081525060400191505060405180910390fd5b6001600660146101000a81548160ff021916908315150217905550565b600260009054906101000a900473ffffffffffffffffffffffffffffffffffffffff1681565b6005602052806000526040600020600091509050548156fea165627a7a72305820ee6a7ffbdd233295648b0897cd267a0c40a2e5b3d2bb8859f24ad360a55f279d0029",
  "source": "pragma solidity >=0.5.0 <0.7.0;\n\ncontract Project {\n    \n    string public title;\n    uint public min_bid;\n    address public employer;\n    \n    address public bestBidder = address(0);\n    uint public bestBid = 0;\n    \n    mapping(address => uint) public bidders;\n    address selectedBidder= address(0);\n\n    bool ended;\n    \n    constructor(string memory _title, uint  _min_bid) public payable {\n        employer = msg.sender;\n        title = _title;\n        min_bid = _min_bid;\n    }\n    function bid(uint amount) public {\n        require (amount > min_bid, \" amount must be greater than minimum bid value \");\n        require(!ended,\" Sorry bid has been closed \");\n        require(bidders[msg.sender] == 0, \" you have already bidded some amount in project  \");\n \n        if(bestBid < amount){\n            bestBid = amount;\n        }\n\n        bestBidder = msg.sender;\n        bidders[msg.sender] += amount;\n    }\n    \n    function selectBidder(address bidder) public{\n        require(!ended,\" Sorry bid has been closed \");\n        require(bidders[bidder] != 0, \"no address found\");\n        require(msg.sender == employer,\" only employer can execute this function \");\n        \n        selectedBidder = bidder;\n        endBid();\n    }\n    \n    \n    function withDraw() public{\n        require(ended,\" Sorry bid has been closed \");\n        require(msg.sender == employer,\" only employer can execute this function \");\n        msg.sender.transfer(20 ether);\n       \n    }\n    \n    function endBid() public {\n        require(!ended,\" Sorry bid has been closed \");\n        require(msg.sender == employer,\" only employer can execute this function \");\n        ended = true;\n    }\n \n}\n\n",
  "sourcePath": "/home/sam/Documents/GitHub/My-etherum-world/contracts/bid.sol",
  "compiler": {
    "name": "solc",
    "version": "0.5.0+commit.1d4f565a.Emscripten.clang"
  },
  "schemaVersion": "3.0.9",
  "updatedAt": "2019-05-10T06:35:43.310Z",
  "devdoc": {
    "methods": {}
  },
  "userdoc": {
    "methods": {}
  }
}